:020000040000FA
:1000000068080020F5000000070100000901000059
:1000100000000000000000000000000000000000E0
:100020000000000000000000000000000B010000C4
:1000300000000000000000000D0100000F010000A2
:100040001101000011010000110100001101000068
:10005000110100000000000011010000110100006A
:100060001101000011010000110100001101000048
:100070001101000011010000110100001101000038
:100080001101000011010000110100001101000028
:100090001101000011010000110100001101000018
:1000A000110100001101000000000000000000002C
:1000B0000000000000000000000000000000000040
:1000C0000348854600F05CF800480047BD07000083
:1000D00068080020401E00BF00BF00BF00BF00BF77
:1000E00000BF00BF00BF00BF00BF00BF00BFF1D115
:1000F00070470000074802680F210A430260064863
:10010000804706480047FEE7FEE7FEE7FEE7FEE71A
:10011000FEE7000024050040E9010000C1000000E6
:10012000F0B51FB40646002082B005464024019178
:1001300000901BE0019922460F46304600F042F83D
:10014000049A059B801A994110D3104619462246FD
:1001500000F028F8361A8F4101972246012000212D
:10016000009F00F01FF838184D4100902046641E93
:100170000028DFDC019B00982946324607B0F0BD1D
:10018000064C0125064E05E02046E36807C82B43D0
:1001900098471034B442F7D3FFF796FFF0090000F8
:1001A000000A000010B5202A04DB0146203A9140E5
:1001B000002010BD914020239C1A0346E3401943C0
:1001C000904010BD10B5202A04DB0846203AD040EC
:1001D000002110BD0B46D340D0402024A21A9140EC
:1001E0000843194610BD000010B500F0B5FA00280C
:1001F00005D0074807494860C8130749886100F0DF
:1002000091FA002802D001200449886010BD000046
:10021000DFFF07C000050040006C00400006004002
:100220000FB410B504A9074B02AA039800F01CF8FC
:10023000044602A9002000F055FA204610BC08BC74
:1002400004B01847E506000002E008C8121F08C104
:10025000002AFAD170477047002001E001C1121F47
:10026000002AFBD170470000FFB591B00F4605464C
:100270000026F9E0252876D100246D1CFB4A009465
:10028000012102942B780846203B984003461342F4
:1002900002D004436D1CF5E728782A280ED00221ED
:1002A00028780246303A092A15D8009A0A235A4378
:1002B000303A80180C436D1C0090F1E701CF00909C
:1002C000002805DA012040030443009840420090D2
:1002D000022004436D1C28782E2815D104200443E5
:1002E0006D1C28782A280AD101CF6D1C02900BE0E2
:1002F00002990A225143303940186D1C0290287827
:10030000014630390929F3D928786C2810D006DC49
:100310004C281AD068280ED06A2817D104E0742817
:1003200013D07A2812D110E00120400504430CE0DC
:100330000121090501E0032109050C436978814287
:1003400003D101206D1C000524186D1C2878039032
:100350006E281FD00DDC632833D005DC00287DD04B
:10036000582812D1BEE010E0642801D069280CD1D1
:1003700081E073282FD004DC6F2870D0702804D15E
:10038000B2E075286CD078286BD0149A13999047F6
:10039000761C68E06002400F022807D003280AD0CC
:1003A000042838680AD03F1D06605CE001CFF117D1
:1003B0000660416057E001CF068054E03F1D0670A3
:1003C00051E03878694608740020487404A83F1D3D
:1003D0000390012003E001CF03900020C043610798
:1003E0000FD5002101E00199491C029A0191914227
:1003F00013DA8142F7DB019A0399895C0029F2D173
:100400000BE0002101E00199491C01918142FADBD6
:10041000019A0399895C0029F5D101990098139AF2
:10042000401A00902146149B00F046F9019980196A
:10043000461807E0039803990078491C0391149A21
:10044000139990470198401E0190401CF2D121461B
:10045000149B139A009800F01FF903E008E04CE0A9
:100460003EE03FE086196D1C2878002800D001E7A7
:10047000304615B0F0BD0A200021049005916002BD
:10048000410F022905D001CFC2179446032907D096
:1004900009E0FF1DFF08FF0079683868083706E0AB
:1004A00000B2C2179446042902D140B2C1178C464B
:1004B00000226146944506DA0A46002140429141F5
:1004C0008C462D2102E0210504D52B216A461176A8
:1004D000012103E0E10701D02021F7E7019150E07D
:1004E0000A200BE0102009E01020049000210420D5
:1004F000044308200591029003E0082000210591A3
:1005000004906002410F022905D001CF00229446D9
:10051000032908D008E0FF1DFF08FF00796838684C
:1005200008378C4603E080B2042900D1C0B2002114
:100530000191210725D5039970292AD0049A102109
:10054000059B4A401A4309D16146014306D0302138
:100550006A4611760399517602210191049A082185
:10056000059B4A401A430CD16146014301D1610702
:1005700007D530216A461176012101910299491E61
:1005800002910399582909D039A103910FA90F911C
:1005900012E040216A4611760121DEE739A1F4E735
:1005A0006146059B049AFFF7BBFD039B8C469B5C51
:1005B0000F9A521E0F92137061460143F0D10F98AB
:1005C00007A9081A20300390600704D50120000411
:1005D0008443029801E0012002900399884201DDE2
:1005E000401A00E000204118029001980918009874
:1005F000401A0090E00306D42146149B139A0098F9
:1006000000F05AF88619002007E006A9085C149A41
:10061000139990470498761C401C019904908842D5
:10062000F3DBE0030CD52146149B139A009800F0ED
:1006300043F8861904E0149A302013999047761CE9
:100640000299481E02900029F5DC08E00F980F99E6
:100650000078491C0F91149A13999047761C0399BE
:10066000481E03900029F1DCF1E600000928010092
:100670003031323334353637383961626364656618
:1006800000000000303132333435363738394142DA
:100690004344454600000000F8B5044600251E46C8
:1006A0001746880404D405E039462020B0476D1C65
:1006B000641EF9D52846F8BDFFB50446002581B073
:1006C0001E46C80301D5302700E02027880404D542
:1006D00005E038460399B0476D1C641EF9D52846DD
:1006E00005B0F0BD0A68531C0B6010707047000025
:1006F00008B500200A49086001208107086000BF92
:10070000074800680028FBD001200B230A2209219A
:100710000090082000F016F900F0CCF808BD0000A9
:10072000000100400B48008CC0B2012810D10948DC
:10073000808C0007000F0BD10648806AF02108402A
:10074000402805D10348C06A084201D10120704702
:100750000020FCE7C00F00F01748008CC0B2012851
:1007600027D11548808C0007000F22D11248806ADB
:10077000F021084205D11048C06A084201D1012089
:1007800070470D48806AF0210840102805D10A48BA
:10079000C06A084201D10120F2E70748806AF021CF
:1007A0000840302805D10448C06A084201D1012020
:1007B000E6E70020E4E70000C00F00F086B0FFF796
:1007C00097FF1EA000F004F937E01F481F4948605A
:1007D00000201F49086001201E49486000BF1C48D6
:1007E00000680028FBD000201949C8600120194981
:1007F000886000BF1648C0680028FBD01648006813
:1008000001280FD11048C0780F49897800910190D4
:100810000D484378027811A103A8FFF701FD03A852
:1008200000F0D6F800200A49086101200949086152
:1008300000BF074800690028FBD0C6E7546F20615D
:100840007175690A000000000400002000150040D6
:1008500000110040001000400014004025303258C4
:100860002530325825303258253032585C0000008F
:1008700001B505E00098401E00900348FFF72AFCF0
:1008800000980028F6D108BDE703000010B58A00E3
:1008900005231B07072424021B1984001A5110BDCD
:1008A00001210522120707231B02D2188300D15011
:1008B0007047000070B504460D4600201949C86015
:1008C000072088600020086117484862174888623E
:1008D0001748C861174808620020C862FF200863F3
:1008E0000020486114488861022048630846406B34
:1008F0008007800F022804D11048C863104888631D
:100900000BE00848406B8007800F012805D1FF20CD
:100910000449C863FF20083088630320FFF7A8FF5D
:1009200070BD000000150040E7C2C3C4C8C7C6C5FB
:10093000E7E7E7E7C2C2C2000B0B0401FFFF0000BC
:1009400021100100F8B507460C4615461E46204604
:10095000FFF7A6FF00213046FFF798FF1048C4605C
:100960004661069800280DD03846FFF799FF002110
:100970002846FFF78BFF0A48056187600120084978
:100980004031C862074806494862042008600120D7
:10099000054988600860002004498860F8BD0000AF
:1009A0000025004000509D00002000400021004034
:1009B0000549C86100BF0549C9690129FBD100216A
:1009C000024AD1617047000000250040002100402C
:1009D00030B50346002528466D1C1C5C05E020460A
:1009E000FFF7E6FF28466D1C1C5C002CF7D130BDDC
:1009F000000A00000000002004000000480200007F
:040A00000024F400DA
:04000005000000C136
:00000001FF
